:100000000C942D070C9455070C9455070C94550728
:100010000C9455070C9455070C9455070C945507F0
:100020000C9455070C9455070C94E0180C94521935
:100030000C9455070C9455070C9455070C945507D0
:100040000C9455070C9455070C9455070C945507C0
:100050000C9455070C9455070C9455070C94600E9E
:100060000C9455070C9455070C9455070C945507A0
:100070000C9455070C9455070C9455070C94550790
:100080000C94821B0C9455070C9455070C9455073F
:100090000C9455070C9455070C9455070C94550770
:1000A0000C9455070C9455070C9455076F0772076D
:1000B000610765076B0793079307930776077A072E
:1000C0007E078407880793078E0703E01C1023C868
:1000D0001D38216422641F1808381FC639895FD172
:1000E00056F22FFC23F211220E1C03E01C1023C831
:1000F0001D38216422641F18783E97C999895FCA08
:1001000036FC2FFC23F211220E1C07C0083813C442
:100110001CB82684264418F87C1E93E9919953FA5A
:100120003F6C3FF44FC44488387007C0083813C48C
:100130001CB82684264418F81C1063F8919C8BFA8E
:100140004F6A3FF44FC44488387007CE083111C954
:100150001EBA2686264618FC0C143FE8719E896953
:100160008BF17FF28FF29F8C6E00000007E0081881
:1001700013C41CB82684264418F80C1013E02190F0
:100180002FF011B012700C2007C073E08C10938810
:100190005D78616462643F18283017FC798E96910F
:1001A0008FD14FFE4FF131F90076000007E01810B3
:1001B00023C81D38216422641F18083007C8098429
:1001C0000FF40D880E48043003E000000000003EEC
:1001D0005B4F5B3E3E6B4F6B3E1C3E7C3E1C183CB7
:1001E0007E3C181C577D571C1C5E7F5E1C00183C13
:1001F0001800FFE7C3E7FF0018241800FFE7DBE75C
:10020000FF30483A060E2629792926407F05050742
:10021000407F05253F5A3CE73C5A7F3E1C1C08089E
:100220001C1C3E7F14227F22145F5F005F5F060963
:100230007F017F006689956A606060606094A2FFBC
:10024000A29408047E040810207E201008082A1CAE
:1002500008081C2A08081E101010100C1E0C1E0C7A
:1002600030383E3830060E3E0E060000000000001A
:10027000005F00000007000700147F147F14242A89
:100280007F2A12231308646236495620500008075B
:100290000300001C2241000041221C002A1C7F1C7C
:1002A0002A08083E0808008070300008080808087E
:1002B000000060600020100804023E5149453E00E5
:1002C000427F400072494949462141494D33181443
:1002D000127F1027454545393C4A49493141211192
:1002E00009073649494936464949291E0000140084
:1002F00000004034000000081422411414141414A7
:10030000004122140802015909063E415D594E7C04
:100310001211127C7F494949363E414141227F41B9
:1003200041413E7F494949417F090909013E414117
:1003300051737F0808087F00417F41002040413F02
:10034000017F081422417F404040407F021C027F11
:100350007F0408107F3E4141413E7F090909063E66
:100360004151215E7F091929462649494932030135
:100370007F01033F4040403F1F2040201F3F403847
:10038000403F631408146303047804036159494D22
:1003900043007F4141410204081020004141417F58
:1003A00004020102044040404040000307080020CE
:1003B000545478407F2844443838444444283844CE
:1003C00044287F385454541800087E090218A4A405
:1003D0009C787F0804047800447D40002040403D24
:1003E000007F1028440000417F40007C047804789E
:1003F0007C080404783844444438FC182424181831
:10040000242418FC7C08040408485454542404048C
:100410003F44243C4040207C1C2040201C3C403079
:10042000403C44281028444C9090907C4464544CA8
:100430004400083641000000770000004136080003
:1004400002010204023C2623263C1EA1A161123AAD
:100450004040207A385454555921555579412254F9
:10046000547842215554784020545579400C1E52FE
:1004700072123955555559395454545939555454A3
:10048000580000457C410002457D420001457C400A
:100490007D1211127DF0282528F07C54554500204E
:1004A00054547C547C0A097F4932494949323A44C0
:1004B00044443A324A4848303A4141217A3A42402B
:1004C0002078009DA0A07D3D4242423D3D404040FD
:1004D0003D3C24FF2424487E4943662B2FFC2F2BD0
:1004E000FF0929F620C0887E090320545479410071
:1004F00000447D413048484A32384040227A007AF0
:100500000A0A727D0D19317D2629292F28262929CD
:10051000292630484D4020380808080808080808EF
:10052000382F10C8ACBA2F102834FA00007B000016
:1005300008142A142222142A14085500550055AA1A
:1005400055AA55AAFF55FF55FF000000FF001010E7
:1005500010FF00141414FF001010FF00FF1010F023
:1005600010F0141414FC001414F700FF0000FF0036
:10057000FF1414F404FC141417101F10101F101F84
:100580001414141F00101010F0000000001F1010B1
:1005900010101F10101010F010000000FF101010AD
:1005A000101010101010FF10000000FF140000FFCA
:1005B00000FF00001F10170000FC04F414141710B3
:1005C000171414F404F40000FF00F71414141414A6
:1005D0001414F700F7141414171410101F101F141C
:1005E0001414F4141010F010F000001F101F00007D
:1005F000001F14000000FC140000F010F01010FFA9
:1006000010FF141414FF141010101F00000000F04D
:1006100010FFFFFFFFFFF0F0F0F0F0FFFFFF000022
:10062000000000FFFF0F0F0F0F0F3844443844FC49
:100630004A4A4A347E02020606027E027E02635560
:100640004941633844443C04407E201E2006027E1B
:10065000020299A5E7A5991C2A492A1C4C7201722D
:100660004C304A4D4D303048784830BC625A463D97
:100670003E494949007E0101017E2A2A2A2A2A444C
:10068000445F444440514A444040444A5140000081
:10069000FF0103E080FF000008086B6B083612368C
:1006A0002436060F090F060000181800000010106D
:1006B000003040FF0101001F01011E00191D17122B
:1006C000003C3C3C3C000000000000000000230017
:1006D000260029002C002F000000000200090F0056
:1006E00000030401000C00000000000000000000F6
:1006F00000000000000000804020100804020101FA
:10070000020408102040807088C424101000001CCF
:10071000224F4B111101011424448404FC808050A9
:100720005F4141407F0202000000FC048444240039
:1007300000007F4041415F01010101010101018091
:1007400080808080808080FF01FFFFFF094111FFD2
:1007500000FFFFFF084011FF80FFFFFF88C09126C8
:10076000262626FC262626404040403F404040FFAB
:1007700047474747FF2626FF80808080FF4040FF95
:10078000C3C37EFFC3C37E7E83BBA3A387FF7EF864
:10079000FEFFFFFF999967FFFFFFFFFF9999661F13
:1007A0007FFFFFFF9999E600000000240027002A40
:1007B000002D00300004E010021C07123732292DF2
:1007C00029252B3900010310E110031D07062E2CEB
:1007D000292D2E2E373F0000021013800A29806435
:1007E000022A040000007F2B040000007F0F01801C
:1007F000961180FFB103012C2DB203012C2DB306FD
:10080000012C2D012C2DB40107C003A20284C101CB
:10081000C5C2020A00C3028A2AC4028AEEC5010EBA
:1008200020003601C83A0105010001000100010065
:1008300001000100010001000100010001000100B0
:1008400001000100010001000100010001000100A0
:100850000100010001000100010001000100010090
:100860000100010001000100010001000100010080
:100870000100010001000100010001000100010070
:100880000100010001000100010001000100010060
:100890000100010001000100010001000100010050
:1008A0000100010001000100010001000100010040
:1008B0000100010001000100010001000100010030
:1008C0000100010001000100010001000100010020
:1008D0000100010001000100010001000100010010
:1008E0000100010001000100A2000100A3000100BD
:1008F0000100010001000100010001000100910060
:1009000092000100010001000100010001009100BE
:10091000920001000100010001000100010001003E
:1009200001000100010001000100010001000100BF
:1009300001000100010001000100010001000100AF
:10094000010001000100010001000100010001009F
:10095000010001000100010001000100010001008F
:10096000010001000100010001000100010001007F
:100970000100010001000100010001000100A200CE
:10098000A300A200A300A200A30001000100010037
:100990000100A200A300010001000100010001000C
:1009A0000100010001000100010001000100A2009E
:1009B000010001000100A30001000100010001008D
:1009C000010001000100A1000100010001009100EF
:1009D000920001000100A1000100010001000100DE
:1009E00001000100010001000100010001000100FF
:1009F00001000100010001000100010001000100EF
:100A00000100010001000B000B000B0001000100C0
:100A100001000100010001009100920001000100AD
:100A20000100A200A300010001000100010001007B
:100A300001000100010001000100010001000100AE
:100A400001000100A20001000100A300A2000100BA
:100A50000100A300A200A300A20001000100A30066
:100A600001000100A200A30001000100A200A300F8
:100A700001000100A20001000100010001000100CD
:100A80000100010001000100010001000100A100BE
:100A9000010091009200A100010001000100A100ED
:100AA00001000100A200A3000100010001000100FB
:100AB0000100010001000100010002000300040028
:100AC0000100010001000B000B000100010001000A
:100AD00001000100010001000B000B0001000100FA
:100AE000A100010001000100A20001000100A3001B
:100AF000A200A3000100010001000100910092008A
:100B000001000100010001000100A2000B000B0028
:100B10000B000B000B000B0001000100A300A20062
:100B20000100010001000100A300A200010001007A
:100B3000A300A20001000100A300A2000100010027
:100B400001006600670001000100010001000100D2
:100B5000010001000100A1000100A1000100A100AD
:100B60000100010001004C004D004D004D004D0002
:100B70004E0001000100020003000400010001001A
:100B8000010001000E000100010001000100010050
:100B9000010001000100010001000100010001004D
:100BA0000100010001000100A10001000100A200FC
:100BB0000100010001000100A3000100A3003700B3
:100BC00038000100A1000100010001000B000B0032
:100BD000A20001000B000100A200010001000B00B7
:100BE00001000100020003000400010001000100F7
:100BF0000100A30001000100A200010001000100AA
:100C00000100A300A200A30001007600770001000C
:100C10004D004D004D004D004D004D004D004D006C
:100C20004D004D004D004D004D004D004D00570052
:100C30005700570057005700500001000100010005
:100C40000E00010001000100010001000E00010082
:100C5000010001000100010001000100010001008C
:100C6000010001000100010001000100010001007C
:100C70004C004D004D004D004D004D004D004D000D
:100C80004D004D004E00470048004C004D004E0006
:100C9000010001000100A200010001000B00A20000
:100CA0000100010001000B000100A20001000E0084
:100CB000010001000100010001004C004D004D0049
:100CC0004D004D004D004D004D004D004D004D00BC
:100CD0004D004D004D004D000000000000000000E0
:100CE00001010101010101010202020202020202EC
:100CF00003030303030303030000000000000000DC
:100D000000000000000000000000000000000000E3
:100D10000000000000000000FFFFFFFFFFFFFFFFDB
:100D2000000028007800080078002000300008004B
:100D3000B800200018000800E8001800180008009B
:100D400018011800100008003801100018000800F1
:100D500060011800100008008001280080000800D1
:100D600010022000100008003002180030000800B7
:100D70003002200008001000580220000800100077
:100D80007002200018000800A8022800780008005F
:100D9000D801200010000800080B00020202010028
:100DA00009040000010202000005240010010524CE
:100DB0000101010424020605240600010705810340
:100DC00010004009040100020A00000007050202A9
:100DD00040000007058302400000040309041201DB
:100DE0000002EF02014041233780000101020301AC
:100DF00041726475696E6F204C4C4300417264759A
:100E0000696E6F204D6963726F0004080201104023
:100E10008040102040804080080204018040201063
:100E20000201108010204040200000000025002812
:100E3000002B002E00310004040404040304050206
:100E40000202020403020202020606060606060465
:100E50000402020204040300B62B11241FBECFEFCC
:100E6000DAE0DEBFCDBF24E0A2E8B3E001C01D920E
:100E7000A43BB207E1F713E0A0E0B1E0E6E4F1E65D
:100E800002C005900D92A238B107D9F717E0CDE264
:100E9000D7E004C02197FE010E948F2ECC32D107EB
:100EA000C9F70E94A21E0C94A1300C94000090E09F
:100EB000FC013197EF30F105B0F5EA5AFF4F0C9481
:100EC0008F2E809180008F7703C0809180008F7D6E
:100ED00080938000089580918000877FF9CF84B54A
:100EE0008F7702C084B58F7D84BD08958091900076
:100EF0008F7707C0809190008F7D03C08091900014
:100F0000877F8093900008958091C0008F7703C001
:100F10008091C0008F7D8093C00008958091C200B1
:100F2000877F8093C2000895CF93DF93282F30E00E
:100F3000F901E852F94F8491F901E65FF14FD4913C
:100F4000F901E95CF14FC491CC2391F081110E9429
:100F50005707EC2FF0E0EE0FFF1FE653F94FA59176
:100F6000B491EC91ED2381E090E021F480E002C0A7
:100F700080E090E0DF91CF9108953FB7F8948091A1
:100F80009B0390919C03A0919D03B0919E0326B575
:100F9000A89B05C02F3F19F00196A11DB11D3FBFB1
:100FA000BA2FA92F982F8827820F911DA11DB11D3F
:100FB000BC01CD0142E0660F771F881F991F4A953B
:100FC000D1F70895EF92FF920F931F93DC01ED91FB
:100FD000FC9111971A960D911C911B9718962D91C3
:100FE0003C91199700A0F1A1E02D7B0140E050E079
:100FF00060E070E009951F910F91FF90EF900895C8
:101000000895FC016370658B848195812681378109
:10101000613039F0633029F09187808733872287E8
:101020000895318720879387828708952F923F9272
:101030004F925F926F927F928F929F92AF92BF92E8
:10104000CF92DF92EF92FF920F931F93CF93DF9394
:10105000CDB7DEB76C970FB6F894DEBF0FBECDBF2D
:101060009C8F8B8F5B011A011F830E833701C9820E
:10107000DC0158964D915C9159974115510509F045
:10108000E5C018968D919C911997681779070CF017
:10109000CAC11A968D919C911B97281639060CF09F
:1010A000C2C18C2C912CFB0136E0C39EE00DF11DDA
:1010B0001124FB87EA871E161F060CF0B4C1C40179
:1010C00033E0880F991F3A95E1F79D878C87820D51
:1010D000931D181619060CF0A6C157968C91811114
:1010E00003C0203B08F02F5FAB8DBC8DED91FC91D0
:1010F00011970284F385E02DCD012A8F09952A8D61
:10110000B5E02B9F90011124F5013596FF87EE87FE
:10111000BB82AA822501A9014A195B09598B488B18
:10112000C10108969B8B8A8BE889F989E40DF51D2E
:10113000E653FE4F9491988761013D822C82A885E9
:10114000A0FF13C0AB8DBC8DED91FC91B981B13086
:1011500031F40484F585E02D2E813F8116C006848C
:10116000F785E02DEE80FF801AC0EE81FF816E16BC
:101170007F06F1F0AB8DBC8DED91FC91B981B13062
:1011800051F40484F585E02D9301A601B2018B8D05
:101190009C8D09950DC00684F785E02D73018401AF
:1011A00094014C815D816A817B818B8D9C8D099539
:1011B000E885E695E887FFEFCF1ADF0A2C813D81AD
:1011C000280D391D3D832C834A895B89C416D506B9
:1011D00009F0B5CF5FEF451A550A8A819B81880DCA
:1011E000991D9B838A83AE85BF854A165B0609F0ED
:1011F0009BCFEE81FF816E167F0609F4F2C0EB8D66
:10120000FC8DA081B181F981F13079F4B5016B5F7A
:101210007F4F5096ED91FC915197830128E030E08B
:10122000A1018B8D9C8D0995DCC06A857B85681931
:1012300079091E96ED91FC911F9773010C851D8510
:101240009401A1018B8D9C8D0995CBC0FA01349638
:101250009491329765917491291BCB01B7E02B9F34
:10126000800D911D1124FA01259134913B8B2A8B1D
:10127000FC01459154915B834A83FC013296C490F2
:10128000319654915E87329614913196D49089812B
:10129000823058F0612E012E000C7708AD2D0D2CF8
:1012A000000CBB0BB987A88704C019861886612C6F
:1012B000712CAB8DBC8DED91FC9111970284F3855F
:1012C000E02DCD010995B9818B2E912C689CC00130
:1012D000699C900D789C900D1124FC01EA0DFB1D7A
:1012E000FD87EC871C82712C612CE12F110FFF0B05
:1012F00095012E0F3F1F3B872A87AC0CB11CA5011F
:101300004E0F5F1F5F8B4E8BC1018D0D911DD7FC62
:101310009A95998F888F4E85641608F062C0862D45
:1013200090E048855985480F591F489D9001499D77
:10133000300D589D300D1124D901A20DB31DB98B6C
:10134000A88BAA84BB844C845D84DC80BA85DB1ABC
:10135000E88DF98DE80FF91FFD8BEC8B8D2D8A0D33
:101360002E893F89A216B306B9F1877061F48A818C
:101370009B810196EA89FB89AA81BB81EA0FFB1F49
:1013800074909B838A8377FE20C0AB8DBC8DED91DA
:10139000FC91B981B13061F40484F585E02D2E8192
:1013A0003F814C895D89B5018B8D9C8D09950DC060
:1013B0000684F785E02DEE80FF8084019401488942
:1013C0005989B2018B8D9C8D0995770CEFEFAE1A80
:1013D000BE0A480C591CC2CF3C813C0D3C8363942F
:1013E0009ACFAB8DBC8DED91FC9111970688F78952
:1013F000E02DCD016C960FB6F894DEBF0FBECDBFC9
:10140000DF91CF911F910F91FF90EF90DF90CF90E0
:10141000BF90AF909F908F907F906F905F904F9014
:101420003F902F9009946C960FB6F894DEBF0FBED4
:10143000CDBFDF91CF911F910F91FF90EF90DF9083
:10144000CF90BF90AF909F908F907F906F905F9064
:101450004F903F902F900895AF92BF92CF92EF920E
:10146000FF920F931F93CF93DF93EC01262F888D6C
:10147000998D009709F040C06A3059F41D861C868A
:101480002C898E859F8538E0239F800D911D112426
:1014900041C06D3009F4AAC08E898823C1F03C890F
:1014A0008C859D8546E0349F800D911D11244885D3
:1014B0005985481759075CF41D861C868E859F85C3
:1014C00048E0349F800D911D11249F878E87EA8804
:1014D000FB88088919894E855F856C857D85CC8858
:1014E000CE010E9416082C898C859D8536E0239FAD
:1014F000800D911D112442C06A3079F41D861C862E
:101500002C89FC013696E4918E859F852E9F800D57
:10151000911D11249F878E8769C06D3009F466C0C4
:10152000FC0134963491631708F460C03196E4915D
:10153000E61708F45BC0FC013296A590B490462FE4
:1015400050E0431B510937E0349FB001359F700DC7
:101550001124A60EB71EF501329634913196E4910E
:10156000332311F0E1110DC0F5013496E4912C897B
:101570008C859D85E29F800D911D11249D878C8710
:1015800035C0F501359644915E89552311F16C897A
:10159000E32FF0E0E40FF11D47FDFA956E9FD001B7
:1015A0006F9FB00D11244C855D854A0F5B1FE88548
:1015B000F985E417F5076CF41D861C86FC01369648
:1015C000E4918E859F856E9F800D911D11249F87CC
:1015D0008E87EA88FB88088919894E855F856C8526
:1015E0007D85CC88CE010E941608BECF81E090E0B8
:1015F000DF91CF911F910F91FF90EF90CF90BF900F
:10160000AF9008956F927F928F929F92AF92BF9208
:10161000CF92DF92EF92FF920F931F93CF93DF93BE
:10162000EC014B015A0169013801E881F98102841A
:10163000F385E02D0995E881F9810288F389E02D91
:1016400087019601A501B401CE010995E881F981D0
:10165000A501460D571D415051090288F389E02D1F
:101660009601B401CE010995E881F9810088F189DC
:10167000E02D9301A501B401CE010995E881F9811E
:10168000C80CD91CB601615071090088F189E02DA0
:101690009301A501CE010995E881F9810688F789B2
:1016A000E02DCE01DF91CF911F910F91FF90EF9030
:1016B000DF90CF90BF90AF909F908F907F906F9072
:1016C0000994CF92DF92EF92FF920F931F93CF93E3
:1016D000DF9300D000D000D0CDB7DEB76C01DC01C5
:1016E000ED91FC916217730789F4041715072CF428
:1016F000942F852FA801092F182F041B150B980173
:101700002F5F3F4F048CF58DE02D12C0401751071D
:1017100009F5261737072CF4962F872FB901292FA3
:10172000382F261B370B2F5F3F4F068CF78DE02D90
:101730008701C601099526960FB6F894DEBF0FBE45
:10174000CDBFDF91CF911F910F91FF90EF90DF9070
:10175000CF9008950284F385E02D2D833E834B8343
:101760005C8369837A830995D601ED91FC910488A5
:10177000F589E02D2D813E814B815C8169817A81E3
:10178000C6010995D601ED91FC910688F789E02DF7
:10179000C60126960FB6F894DEBF0FBECDBFDF910F
:1017A000CF911F910F91FF90EF90DF90CF90099410
:1017B000EF92FF920F931F93DC01ED91FC91119733
:1017C0001A960D911C911B9718962D913C91199783
:1017D00000A0F1A1E02D7B0140E050E060E070E06E
:1017E00009951F910F91FF90EF9008954F925F928E
:1017F0006F927F928F929F92AF92BF92CF92DF9221
:10180000EF92FF920F931F93CF93DF9300D0CDB74A
:10181000DEB76C015A0139014801DC01ED91FC9100
:101820000284F385E02D69837A8309956981462EC8
:101830007A81572E640C751CD601ED91FC914614EB
:1018400057046CF40088F189E02D87019401A5010B
:10185000B201C6010995BFEF4B1A5B0AEDCF0688AE
:10186000F789E02DC6010F900F90DF91CF911F9166
:101870000F91FF90EF90DF90CF90BF90AF909F902F
:101880008F907F906F905F904F900994AF92BF922E
:10189000CF92DF92EF92FF920F931F93CF93DF933C
:1018A00000D000D0CDB7DEB75C016901DC01ED915D
:1018B000FC910284F385E02D4B835C8369837A83FA
:1018C0000995D501ED91FC9169817A819B012C0DDF
:1018D0003D1D215031090488F589E02D78014B81A7
:1018E0005C818A01C5010995D501ED91FC910688BD
:1018F000F789E02DC5010F900F900F900F90DF91A9
:10190000CF911F910F91FF90EF90DF90CF90BF90FC
:10191000AF900994AF92BF92CF92DF92EF92FF9275
:101920000F931F93CF93DF9300D000D0CDB7DEB7D6
:101930005C016901DC01ED91FC910284F385E02DED
:101940004B835C8369837A830995D501ED91FC9182
:101950004B815C81C40ED51EB1E0CB1AD10804883E
:10196000F589E02D7801860169817A819B01C501A5
:101970000995D501ED91FC910688F789E02DC50107
:101980000F900F900F900F90DF91CF911F910F91BB
:10199000FF90EF90DF90CF90BF90AF9009940895A3
:1019A000EF92FF920F931F93DC01ED91FC9100A049
:1019B000F1A1E02D09951F910F91FF90EF900895EF
:1019C0000F931F93DC01ED91FC91068CF78DE02DB8
:1019D00009951F910F9108950F931F93DC01ED91CD
:1019E000FC91048CF58DE02D09951F910F910895C0
:1019F000DC01ED91FC910084F185E02D09940895BE
:101A00002F923F924F925F926F927F928F929F920E
:101A1000AF92BF92CF92DF92EF92FF920F931F93FC
:101A2000CF93DF9300D01F92CDB7DEB74C017B83FD
:101A30006A836A01590117019801241B350B37FF8E
:101A400003C0319521953109C5014A815B81841B11
:101A5000950B97FF03C091958195910951E05983AA
:101A60008217930714F019820BC09A2D8B2D580101
:101A7000092F182F9A818B81DB82CA82C92ED82E1A
:101A80008A819B81A816B9065CF49C2D8D2D680176
:101A9000092F182F9A818B81BB82AA82A92EB82E7A
:101AA0002501AA81BB814A1A5B0A38016C187D089E
:101AB00077FE03C0719461947108720157FE03C0F0
:101AC000BFEFEB1AFB0AF594E794C016D1061CF0A1
:101AD0000FEF1FEF1FC001E010E01CC0D401ED911B
:101AE000FC91B9810484F585E02D9101BB23C1F0FF
:101AF0004A815B81B601C4010995E618F708F7FE33
:101B000004C0C00ED11EE40CF51CEA81FB813196A5
:101B1000FB83EA834A815B81A416B506FCF604C008
:101B2000A6016A817B81E7CF0F900F900F90DF9124
:101B3000CF911F910F91FF90EF90DF90CF90BF90CA
:101B4000AF909F908F907F906F905F904F903F905D
:101B50002F900895089580E090E008951F93CF930B
:101B6000DF93282F30E0F901E852F94F8491F90111
:101B7000E65FF14FD491F901E95CF14FC491CC23B8
:101B8000C9F0162F81110E945707EC2FF0E0EE0FDD
:101B9000FF1FE75DF14FA591B4918FB7F894111134
:101BA00005C09C91ED2FE095E92302C0EC91ED2B4F
:101BB000EC938FBFDF91CF911F910895CF93DF9367
:101BC00090E0FC01E65FF14F2491FC01E95CF14FEC
:101BD0008491882361F190E0880F991FFC01E955F9
:101BE000F84FC591D491FC01E75DF14FA591B491F7
:101BF000611109C09FB7F89488812095822388835A
:101C0000EC912E230BC0623061F49FB7F8943881B9
:101C1000822F809583238883EC912E2B2C939FBF5A
:101C200006C08FB7F894E8812E2B28838FBFDF91F1
:101C3000CF9108958F929F92AF92BF92CF92DF92F1
:101C4000EF92FF926B017C010E94BD074B015C018A
:101C5000C114D104E104F104F1F00E94BD07DC01DC
:101C6000CB0188199909AA09BB09883E9340A105AF
:101C7000B10570F321E0C21AD108E108F10888EE3D
:101C8000880E83E0981EA11CB11CC114D104E1048C
:101C9000F10419F7DDCFFF90EF90DF90CF90BF9068
:101CA000AF909F908F9008952FB7F894609197030D
:101CB000709198038091990390919A032FBF089592
:101CC0001F920F920FB60F9211242F933F938F9371
:101CD0009F93AF93BF938091970390919803A091A6
:101CE0009903B0919A033091960323E0230F2D3787
:101CF00020F40196A11DB11D05C026E8230F029610
:101D0000A11DB11D20939603809397039093980390
:101D1000A0939903B0939A0380919B0390919C03A5
:101D2000A0919D03B0919E030196A11DB11D8093CA
:101D30009B0390939C03A0939D03B0939E03BF913C
:101D4000AF919F918F913F912F910F900FBE0F9068
:101D50001F901895DC019B96ED91FC919C979081CA
:101D6000D0968C91892B80830895DC019996ED9112
:101D7000FC919A9790819F968C918095892380837E
:101D80000895DC019996ED91FC919A9790819F9628
:101D90008C91892B80830895FC01838D882339F0F1
:101DA0006EBD00000DB407FEFDCF8EB5089528E08E
:101DB00030E090E8A5A1B6A185A5492F462319F0EA
:101DC0004C91842B03C04C91809584238C93A7A1C4
:101DD000B0A54C9186A5842B8C93A7A1B0A54C915E
:101DE00086A5809584238C9396952150310911F70F
:101DF000089508958CBD9DBD08950F931F93CF93B3
:101E0000DF931F92CDB7DEB78C01FC01838D882351
:101E100041F0809128049091290469830E94FA0E70
:101E20006981C80169830E94AA0EC8010E94B50E8B
:101E30006981C8010E94CC0EC8010F90DF91CF913B
:101E40001F910F910C94C10E0F931F93CF93DF93AB
:101E50001F92CDB7DEB78C01DC015B968C91882395
:101E600041F0809128049091290469830E94FA0E20
:101E70006981D8019B96ED91FC919C979081D096B9
:101E80008C91809589238083C80169830E94B50E57
:101E90006981C8010E94CC0EC8010F90DF91CF91DB
:101EA0001F910F910C94C10E611102C060E201C03C
:101EB00061E20C94240F1F93CF93DF93EC01162F54
:101EC00066E30E94240F612F63706D8B8A8D6230F0
:101ED000A1F06330D1F1613041F0823011F08430F3
:101EE00011F460EC11C068EC0FC0823011F0843046
:101EF00011F460EA31C068EA2FC0823011F08430FA
:101F000011F460E001C068E0CE010E94FD0E8A8DF0
:101F1000813029F480E890E09B878A870FC0843065
:101F200039F480EA90E09B878A8780E590E006C0DC
:101F300080EA90E09B878A8780E890E0998788878D
:101F400089A18BA38AA18CA327C0823011F0843091
:101F500011F460E601C068E6CE010E94FD0E8A8D94
:101F6000813029F480E890E0998788870FC0843019
:101F700039F480EA90E09987888780E590E006C090
:101F800080EA90E09987888780E890E09B878A873D
:101F900089A18CA38AA18BA3DF91CF911F91089572
:101FA000EF92FF920F931F93CF93DF9300D0CDB7A3
:101FB000DEB77C01162F6AE229834A830E94240F30
:101FC00060E0C7010E94FD0EF70183A1612F680F39
:101FD000C7010E94FD0E60E0C7010E94FD0EF701DF
:101FE00083A12981622F680FC7010E94FD0E6BE259
:101FF000C7010E94240F60E0C7010E94FD0EF70197
:1020000084A14A81642F680FC7010E94FD0E60E021
:10201000C7010E94FD0EF70184A1602F680FC70160
:102020000E94FD0E6CE2C7010F900F90DF91CF91DF
:102030001F910F91FF90EF900C94240FAF92BF92DD
:10204000CF92DF92EF92FF920F931F93CF93DF9384
:10205000EC015901680128853985621773070CF076
:1020600053C08A859B85481759070CF04DC0FB016A
:10207000EA0DFB1D2E173F071CF45901A61AB70ADB
:102080009A012C0D3D1D821793071CF46C01C41A94
:10209000D50A0FEF040F0C0D2FEF260F2A0DCE01DE
:1020A0000E94D00F8B8D882331F08091280490916D
:1020B00029040E94FA0ECE010E94AA0ECE010E94AF
:1020C000B50E1C141D049CF48501101611065CF459
:1020D0006F2DCE010E94CC0E6E2DCE010E94CC0E33
:1020E00001501109F2CF81E0C81AD108EACFCE0120
:1020F000DF91CF911F910F91FF90EF90DF90CF90E4
:10210000BF90AF900C94C10EDF91CF911F910F91B2
:10211000FF90EF90DF90CF90BF90AF900895DF9247
:10212000EF92FF920F931F93CF93DF93EC0179010E
:10213000D02E8885998568177907ECF52A853B8527
:1021400042175307C4F59B012E0D3F1D82179307BD
:102150001CF47C01E61AF70A2FEF260F2E0D042F30
:10216000CE010E94D00F8B8D882331F080912804FE
:10217000909129040E94FA0ECE010E94AA0ECE016F
:102180000E94B50EE114F10461F0612FCE010E94AE
:10219000CC0E6D2DCE010E94CC0E81E0E81AF10824
:1021A000F1CFCE01DF91CF911F910F91FF90EF9072
:1021B000DF900C94C10EDF91CF911F910F91FF9092
:1021C000EF90DF900895DF92EF92FF920F931F93AD
:1021D000CF93DF93EC017901D02E8885998568171C
:1021E0007907F4F58A859B8548175907CCF59A013C
:1021F0002E0D3F1D821793071CF47C01E41AF50A8B
:102200008FEF840F082F0E0D262FCE010E94D00FC6
:102210008B8D882331F080912804909129040E94AD
:10222000FA0ECE010E94AA0ECE010E94B50EE11454
:10223000F10461F0612FCE010E94CC0E6D2DCE0114
:102240000E94CC0E81E0E81AF108F1CFCE01DF91B7
:10225000CF911F910F91FF90EF90DF900C94C10EE2
:10226000DF91CF911F910F91FF90EF90DF90089534
:10227000FF920F931F93CF93DF93EC01122FF32E56
:1022800077FD31C0288539856217730764F557FDDE
:102290002AC02A853B85421753072CF501E0040F1D
:1022A00021E0260F0E94D00F8B8D882331F0809182
:1022B0002804909129040E94FA0ECE010E94AA0ED1
:1022C000CE010E94B50E6F2DCE010E94CC0E612F63
:1022D000CE010E94CC0ECE01DF91CF911F910F91C4
:1022E000FF900C94C10EDF91CF911F910F91FF9041
:1022F00008956FEF7FEF8EE594E00C94E2070F9363
:102300001F93CF93DF9300D000D000D0CDB7DEB7BE
:10231000BC01CE0101960E94B1188D819E8126E0FC
:10232000289F8001299F100D1124CE0101960E9443
:10233000AC18C80126960FB6F894DEBF0FBECDBF0D
:10234000DF91CF911F910F9108952F923F924F925D
:102350005F926F927F928F929F92AF92BF92CF9235
:10236000DF92EF92FF920F931F93CF93DF93CDB73E
:10237000DEB72C970FB6F894DEBF0FBECDBF8091AD
:10238000A2030091AC031091AD03882391F1109248
:10239000950310929403109290031092910310925F
:1023A000920310929303C8018D7F892B59F41092E8
:1023B000020110920301109204011092050181E0C4
:1023C00090E011C00130110591F48DEC9CECACE46F
:1023D000BFE38093020190930301A0930401B093A3
:1023E000050184E090E09093010180930001109238
:1023F000A203E0900001F090010122E0E216F10456
:102400000CF440C020E030E046E952E46091020163
:102410007091030180910401909105010E94DE2CCE
:102420002091900330919103409192035091930336
:102430000E94D42D60939003709391038093920334
:102440009093930320E030E046E952E40E94762E18
:102450001816C4F48091940390919503019690937B
:10246000950380939403109290031092910310921D
:102470009203109293038E159F0524F010929503FA
:10248000109294030115110551F480910801909167
:102490000901019709F452C08AEA91E049C002306B
:1024A000110551F48091080190910901019709F4F7
:1024B0004AC0AAE8B1E03FC00130110509F047C0A9
:1024C0002091080130910901809194039091950326
:1024D00021303105B9F48130910571F02CF4892B4C
:1024E000B1F5EAE2F1E02CC08230910541F00397AA
:1024F00071F5AAE6B1E01FC02AE631E026C08AE005
:1025000091E016C08130910571F02CF4892BF9F41B
:10251000EAECF0E015C08230910541F00397B9F480
:10252000AAEAB1E008C02AEA31E00FC08AEE90E0E2
:102530009C878B870CC0BC87AB8709C0EAE6F1E0BB
:10254000FC87EB8704C02AE431E03C872B8720908E
:10255000AE033090AF03B101032C000C880B990B34
:102560000E947F2C2B013C0180904E0490904F04E0
:10257000A0905004B0905104A50194010E94D32D65
:102580006B017C0120E030E0A9010E94762E181634
:102590001CF4C701B60103C0C701B60190580E94E0
:1025A000402E8B018091B0039091B1039A8389836F
:1025B000BC01990F880B990B0E947F2C6B837C8345
:1025C0008D839E8380914A0490914B04A0914C048A
:1025D000B0914D048F839887A987BA879C01AD017C
:1025E0006B817C818D819E810E94D32D6B017C014A
:1025F00020E030E0A9010E94762E18161CF4C701D5
:10260000B60103C0C701B60190580E94402E7B015D
:102610002F81388549855A856B817C818D819E818A
:102620000E94782C87FD08C06F81788589859A85FE
:102630000E94402E7A836983A5019401C301B201EF
:102640000E94782C87FD0DC0A5019401C301B20141
:102650000E94782C8823F1F0C501B4010E94402E1D
:102660001B01A50194016B817C818D819E810E945B
:10267000782C882379F00F5E1F4F97012F5E3F4F14
:10268000EE24EA94FE2CA10169817A818EE594E022
:102690000E941E1060914E0470914F04809150046E
:1026A000909151040E94402E4B015C0160914A04BC
:1026B00070914B0480914C0490914D040E94402EE7
:1026C00080E1E82EF12C00E110E02B853C85A4018F
:1026D0008EE594E00E94351D2C960FB6F894DEBF6F
:1026E0000FBECDBFDF91CF911F910F91FF90EF9063
:1026F000DF90CF90BF90AF909F908F907F906F9022
:102700005F904F903F902F9008958F929F92AF923D
:10271000BF92CF92DF92EF92FF920F931F93CF93CE
:10272000DF93EC018B0188809980AA80BB80FB013C
:10273000C080D180E280F380208531854285538539
:10274000C701B6010E94D42D9B01AC01C501B401A3
:102750000E94782C87FF36C0288539854A855B859D
:10276000C501B4010E94D42DA70196010E94762EC6
:10277000181644F58C809D80AE80BF80F801C4801F
:10278000D580E680F7802485358546855785C70145
:10279000B6010E94D42D9B01AC01C501B4010E9479
:1027A000782C87FF0FC02C853D854E855F85C50140
:1027B000B4010E94D42DC1E0A70196010E94762E9B
:1027C00018160CF0C0E08C2FDF91CF911F910F9164
:1027D000FF90EF90DF90CF90BF90AF909F908F9041
:1027E00008952F923F924F925F926F927F928F92B5
:1027F0009F92AF92BF92CF92DF92EF92FF920F9390
:102800001F93CF93DF93CDB7DEB7A8970FB6F89499
:10281000DEBF0FBECDBF4B015C0129A33AA34BA382
:102820005CA31E0181E1280E311C80E1D1011D92C3
:102830008A95E9F780E090E0A0E2B1E4898F9A8F71
:10284000AB8FBC8F80E090E0A0E8B1E48D8F9E8FCD
:10285000AF8FB8A3C0904A04D0904B04E0904C04D2
:10286000F0904D048091320490913304A09134048F
:10287000B09135048DA39EA3AFA3B8A720E030E0AC
:1028800040E450E4C701B6010E94D42DA501940193
:102890000E94D42D2DA13EA14FA158A50E94D42D58
:1028A000698B7A8B8B8B9C8B40904E0450904F049D
:1028B000609050047090510429A13AA14BA15CA1F1
:1028C000C301B2010E94D42D6D8B7E8B8F8B988FAC
:1028D00000E21DE0F8016591749180E090E00E94B3
:1028E0007D2C69837A838B839C83F8013296659172
:1028F000749180E090E00E947D2C6D837E838F83B5
:102900009887F80134966591749180E090E00E9478
:102910007D2C69877A878B879C87F801369665912D
:10292000749180E090E00E947D2C6D877E878F8778
:10293000988BBE016F5F7F4FC1010E948513882372
:1029400009F441C120E030E0A901C501B4010E94B1
:10295000782C882309F48DC06091A8037091A90395
:102960008091AA039091AB030E94402E072E000C89
:10297000880B990B0E947F2C4B015C016093A8038C
:102980007093A9038093AA039093AB03C701B60188
:102990000E94402E072E000C880B990B0E947F2C62
:1029A00060934A0470934B0480934C0490934D04BD
:1029B00040904A0450904B0460904C0470904D0439
:1029C00020E030E040E450E4C301B2010E94D42D85
:1029D0002DA13EA14FA158A50E94D42D69A37AA391
:1029E0008BA39CA320E030E0A901C501B4010E94A3
:1029F000762E1816A4F020E030E0A901C501B4013C
:102A00000E94782C87FD04C0C12CD12C76010DC00A
:102A1000C12CD12C30E8E32E3FEBF32E06C0C12CA5
:102A2000D12C20E8E22E2FE3F22EA701960169A116
:102A30007AA18BA19CA10E94D42D698B7A8B8B8B60
:102A40009C8BBE016F5F7F4FC1010E948513811176
:102A500007C0A7019601C301B2010E94D42DA0CFE7
:102A60001092A8031092A9031092AA031092AB032C
:102A7000B1C020E030E0A90169A17AA18BA19CA19D
:102A80000E94782C882309F49EC06091A403709161
:102A9000A5038091A6039091A7030E94402E072EC4
:102AA000000C880B990B0E947F2C4B015C016093FA
:102AB000A4037093A5038093A6039093A703C30177
:102AC000B2010E94402E072E000C880B990B0E9429
:102AD0007F2C60934E0470934F0480935004909326
:102AE00051048091360490913704A0913804B0913C
:102AF00039048DA39EA3AFA3B8A740904E04509075
:102B00004F0460905004709051042DA13EA14FA13C
:102B100058A5C301B2010E94D42D69A37AA38BA347
:102B20009CA320E030E0A901C501B4010E94762EEB
:102B30001816A4F020E030E0A901C501B4010E94FC
:102B4000782C87FD04C0C12CD12C76010DC0C12C7E
:102B5000D12C90E8E92E9FEBF92E06C0C12CD12C88
:102B600080E8E82E8FE3F82EA701960169A17AA1EB
:102B70008BA19CA10E94D42D6D8B7E8B8F8B988F07
:102B8000BE016F5F7F4FCE0141960E948513811178
:102B90000FC0A7019601C301B2010E94D42D60931A
:102BA0004E0470934F048093500490935104A5CF2A
:102BB0001092A4031092A5031092A6031092A703EB
:102BC0001092A30307C0085F1F4F9DE00839190743
:102BD00009F080CEA8960FB6F894DEBF0FBECDBF29
:102BE000DF91CF911F910F91FF90EF90DF90CF90E9
:102BF000BF90AF909F908F907F906F905F904F901D
:102C00003F902F900895CF92DF92EF92FF920F9313
:102C10001F93CF93DF9300D000D000D0CDB7DEB7A5
:102C200085E00E9494079A83898386E00E94940736
:102C30009C838B8387E00E9494079E838D83E2EBC5
:102C4000F3E08AE8C82E83E0D82E65EB73E02DE828
:102C500033E087E893E08E010F5F1F4F41E0508122
:102C6000552319F01082D9014C93D6015C9155235C
:102C700019F01C92DC014C93D801ED90FD908D0170
:102C8000DB01EF2859F44C93D6011C92DC011C9215
:102C9000D9015C9151110CC040830AC01C92108272
:102CA000D9011C92DC015C91511102C0D6014C93F8
:102CB0003196BFEFCB1ADB0A6F5F7F4F2F5F3F4F1D
:102CC000019653E0E53BF50751F626960FB6F894CA
:102CD000DEBF0FBECDBFDF91CF911F910F91FF904F
:102CE000EF90DF90CF9008954091CC035091CD03A9
:102CF0002091CA033091CB0342175307B4F490914B
:102D0000E8009570E1F39091E80092FD19C080937E
:102D1000F1008091CC039091CD0301968F73992798
:102D2000892B19F48EEF8093E8008091CC03909169
:102D3000CD0301969093CD038093CC0381E0089559
:102D400080E00895DF92EF92FF920F931F93CF934D
:102D5000DF93D82E8A017B01E40EF51EEB01CE1520
:102D6000DF0571F0D7FE03C0FE01849101C08881A8
:102D70000E94741621968111F2CF8FEF9FEF01C050
:102D8000C801DF91CF911F910F91FF90EF90DF90DD
:102D90000895615030F02091F100FC0120830196EC
:102DA000F8CF289A84E68093CF030895CF92DF92DC
:102DB000EF92FF920F931F93CF93DF936C017A01F1
:102DC0008B01C0E0D0E0CE15DF0589F0D8016D9110
:102DD0008D01D601ED91FC910190F081E02DC601AD
:102DE0000995892B11F47E0102C02196ECCFC70111
:102DF000DF91CF911F910F91FF90EF90DF90CF90D7
:102E00000895CF93DF931F92CDB7DEB76983DC01BE
:102E1000ED91FC910280F381E02D41E050E0BE0194
:102E20006F5F7F4F09950F90DF91CF91089583E0F9
:102E30008093E9008091F200882319F08AE380935F
:102E4000E8000895FC018485958597FD0BC09FB728
:102E5000F89482E08093E9008091F2009FBF90E0B7
:102E6000019608959FB7F89482E08093E9008091DD
:102E7000F2009FBF90E008950E948C300F931F9343
:102E8000CF93DF931F92CDB7DEB782E0898342E410
:102E900050E068E97DE080E80E94A2160E948E1E44
:102EA000DC0112960D911C9113970115110569F023
:102EB000D801ED91FC910280F381E02DBE016F5F9E
:102EC0007F4FC801099597FF07C089810F90DF9157
:102ED000CF911F910F910895F80100851185E5CFDD
:102EE0008F929F92AF92BF92CF92DF92EF92FF921A
:102EF0000F931F93CF93DF935C016B017A01809155
:102F00001901882309F45BC08091D003882309F458
:102F100056C08091A00380FF05C08091E0008260D0
:102F20008093E000E70110E00AEF83E0882E9AE347
:102F3000992E2097D9F10E947D1E81110AC001505F
:102F400009F43DC061E070E080E090E00E941A0E5C
:102F5000F0CF282F30E0C217D3070CF48C2F4FB7D7
:102F6000F8948092E9009091E80095FF1DC0282F09
:102F700030E0C21BD30BF601982F915020F08191C5
:102F80008093F100FACFC20ED31E112319F0909254
:102F9000E80009C08091E80085FD06C09092E80035
:102FA00011E0209709F010E04FBFC3CF1111C3CF3C
:102FB0005D9A84E68093CE031E141F0444F081E0E2
:102FC00090E0F5019383828380E090E001C0C70127
:102FD000DF91CF911F910F91FF90EF90DF90CF90F5
:102FE000BF90AF909F908F9008950E947D1E90E0BB
:102FF00008950F931F93CF93DF931F92CDB7DEB742
:103000008C01FC018485958597FF0EC0CE01019649
:103010000E94531E019719F4298130E002C02FEF5E
:103020003FEFF80135872487F801848595850F9057
:10303000DF91CF911F910F910895CF93DF931F924E
:10304000CDB7DEB7FC018485958597FD05C02FEFD0
:103050003FEF358724870BC0CE0101960E94531E97
:10306000019719F4898190E002C08FEF9FEF0F90D4
:10307000DF91CF9108950F931F93CF93DF93EC01CE
:1030800088819981009729F02A813B81261737078B
:1030900088F48B016F5F7F4F0E94C22F009761F011
:1030A000998388831B830A832C813D81232B11F410
:1030B000FC01108281E001C080E0DF91CF911F917F
:1030C0000F910895CF93DF93EC0188819981009748
:1030D00011F00E942A2F198218821D821C821B82E5
:1030E0001A82DF91CF910895EF92FF920F931F9371
:1030F000CF93DF93EC017B018A01BA010E943B1858
:10310000811104C0CE010E94621807C01D830C8388
:10311000B701888199810E949A30CE01DF91CF91C9
:103120001F910F91FF90EF900895CF93DF93EC01E3
:103130006115710559F0FB0101900020E9F7319705
:10314000AF01461B570B0E94741802C00E94621800
:10315000CE01DF91CF910895FC01808191810C9483
:103160002A2FFB01DC0111961C921E9213961C92D1
:103170001E92129715961C921E9214978617970707
:1031800049F0608171816115710521F0448155819B
:103190000C9474180895FC0111821082138212821B
:1031A000158214826115710551F0FB010190002018
:1031B000E9F73197AF01461B570B0C94741808952B
:1031C0001F920F920FB60F9211248F939F938091AD
:1031D000E1009091E100937F9093E10083FF0FC0A5
:1031E0001092E90091E09093EB001092EC0092E3D2
:1031F0009093ED001092D00398E09093F00082FF3E
:1032000020C093E09093E9009091F200992319F087
:103210009AE39093E8009091CE03992339F090912E
:10322000CE0391509093CE03992389F19091CF03CF
:10323000992339F09091CF0391509093CF03992324
:1032400041F184FF10C08091E2008E7E8160809306
:10325000E2008091E1008F7E8093E1008091A003E5
:103260008E7E806111C080FF16C08091E2008E7E4C
:1032700080618093E2008091E1008E7E8093E10086
:103280008091A0038E7E81608093A00304C05D982E
:10329000CDCF2898D6CF9F918F910F900FBE0F90D2
:1032A0001F9018951F920F920FB60F921124CF9274
:1032B000DF92EF92FF920F931F932F933F934F93C1
:1032C0005F936F937F938F939F93AF93BF93EF938E
:1032D000FF93CF93DF93CDB7DEB76C97DEBFCDBF43
:1032E0001092E9008091E80083FFEDC168E0CE0113
:1032F00045960E94C91682EF8093E8008D8987FF6A
:1033000005C09091E80090FFFCCF03C09EEF909322
:10331000E800982F907609F0C6C09E892F89188DF5
:1033200091110CC0803829F48091A1038093F100A1
:1033300002C01092F1001092F10048C1422F50E0FB
:10334000512B913051F4811141C14130510509F0A7
:103350003DC18091A1038D7F0BC0933061F4811139
:1033600035C14130510509F031C18091A10382601E
:103370008093A1032BC1953041F48091E80080FF38
:10338000FCCF20682093E30021C1963009F05FC094
:10339000EB8CFC8C1092E9001092CD031092CC03C0
:1033A000123091F51092CB031092CA030E943E177F
:1033B00099E0BE016F5F7F4FDB01E92F1D92EA9517
:1033C000E9F799831A8391E09E8390EA98879AEFB0
:1033D00099872091CC033091CD03275F3F4F3C83E9
:1033E0002B838D831092E9001092CD031092CC03B1
:1033F000F092CB03E092CA0349E050E080E00E94E3
:10340000A2160E943E17E2C0F092CB03E092CA03DC
:103410000E948E1EDC011296ED90FC901397E11431
:10342000F10409F4C0C0D701ED91FC910480F5814D
:10343000E02DBE016B5E7F4FC7010995009719F023
:103440000CF0C4C0C7C0F701E084F184E8CF973026
:1034500009F4C0C0983021F481E08093F100B6C037
:10346000993009F0B3C0837009F0B4C0E0E7F2E02E
:1034700081E021E036E39081992361F08093E900B7
:103480002093EB0091919093EC003093ED008F5FCF
:10349000873089F78EE78093EA001092EA008F89DF
:1034A0008093D00393C08B8D9C8D1092E900109275
:1034B000CD031092CC039093CB038093CA03898DE4
:1034C000811156C08E899D89913A59F4813209F053
:1034D00081C047E050E062E171E080E00E94A21606
:1034E00075C0913209F076C0833289F4888D90E0FE
:1034F000982F88272F89822BA0E0B0E080930E01BF
:1035000090930F01A0931001B09311015FC080321E
:1035100069F48091E80082FFFCCF67E082E191E0EE
:103520000E94C9168BEF8093E80006C0823209F032
:103530004DC08F898093190180919F03882319F0D2
:10354000EEEFFAE002C0E0E0F8E080911201909125
:103550001301A0911401B0911501803B9440A10585
:10356000B10509F07BC08091190180FF93C076C03E
:103570000E948E1EDC0112960D911C91139701156D
:10358000110541F1D801ED91FC910190F081E02D00
:10359000BE016B5E7F4FC8010995811117C0F8010C
:1035A00000851185ECCF113009F44EC0133091F431
:1035B0008F89882309F445C0823081F440E86DE0AA
:1035C0008CEF9DE00E94792B882321F08EEF809371
:1035D000E80079C081E28093EB0075C0813029F466
:1035E00040E86BE080EF9DE0EDCF833099F70E94DB
:1035F0008E1EDC011296ED90FC9013978E010F5FEA
:103600001F4F6801E114F10479F0D701ED91FC91AD
:103610000680F781E02DB801C7010995080F111D3B
:10362000F701E084F184EECFD8011C92F6010190FD
:103630000020E9F73197BF016C197D0940E0C60110
:10364000C1CF6AED7DE002C06EED7DE061157105D0
:1036500009F2FB01449150E080E840CF0FB6F894A6
:10366000A89580916000886180936000109260004E
:103670000FBEA895EE3F2AE0F20739F08091FE0ACE
:103680009091FF0A91838083A1CF1092FF0A10923C
:10369000FE0A9CCFEE3F8AE0F80731F080819181ED
:1036A0009093FF0A8093FE0A87E797E791838083D0
:1036B0009BE088E10FB6F894A895809360000FBE58
:1036C0009093600083CF6C960FB6F894DEBF0FBE68
:1036D000CDBFDF91CF91FF91EF91BF91AF919F91BE
:1036E0008F917F916F915F914F913F912F911F919A
:1036F0000F91FF90EF90DF90CF900F900FBE0F9043
:103700001F9018951F920F920FB60F9211242F93AE
:103710003F938F939F93AF93BF93EF93FF938091CA
:10372000D4039091D503A091D603B091D703892BF0
:103730008A2B8B2B51F18091D103E091D203F09130
:10374000D3039081892780838091D4039091D503FE
:10375000A091D603B091D703181619061A061B06B6
:103760004CF58091D4039091D503A091D603B091EC
:10377000D7030197A109B1098093D4039093D5038E
:10378000A093D603B093D70315C0809171008D7FAD
:10379000809371009091D103E091D203F091D30313
:1037A0008081282F30E0892F90E0809590958223AA
:1037B00093238083FF91EF91BF91AF919F918F9160
:1037C0003F912F910F900FBE0F901F901895CF93A0
:1037D00080911A018C3021F08F3F09F029C104C07B
:1037E000E6E5FEE0C4919CC08CE080931A01E6E51A
:1037F000FEE0E491EF3F09F41BC1E13009F449C058
:10380000FCF4E1118CC014BC15BC84B5826084BD8D
:1038100085B5816085BDE3E4FEE0E491F0E0EE0F64
:10382000FF1FE75DF14F859194919093A3048093DE
:10383000A204E6E1FEE0E491E093A104C0E072C0DE
:10384000E33009F449C0E43009F069C01092C000C7
:103850001092C1008091C10088608093C100809166
:10386000C10081608093C100E3E4FEE0E491F0E0F8
:10387000EE0FFF1FE75DF14F8591949190939D04AA
:1038800080939C04E6E1FEE0E491E0939B04C4E0B5
:1038900049C0109280001092810080918100886060
:1038A0008093810080918100816080938100E3E4B6
:1038B000FEE0E491F0E0EE0FFF1FE75DF14F859130
:1038C00094919093A00480939F04E6E1FEE0E4913C
:1038D000E0939E04C1E026C01092900010929100E7
:1038E0008091910088608093910080919100816027
:1038F00080939100E3E4FEE0E491F0E0EE0FFF1F1F
:10390000E75DF14F859194919093D3038093D20317
:10391000E6E1FEE0E491E093D103C3E003C0CE2FE3
:10392000C7FD86C061E08CE00E94DE0DCC2309F467
:1039300068C0C23009F47CC0C130F1F480918100CC
:10394000887F8160809381008FE19EE4909389005D
:103950008093880080E590E0A0E0B0E08093A80428
:103960009093A904A093AA04B093AB0480916F0034
:10397000826080936F005CC0C33039F48091910005
:10398000887F8160809391000FC0C43039F48091AA
:10399000C100887F81608093C1001EC0C33021F0C8
:1039A000C43009F045C018C08FE19EE4909399009F
:1039B0008093980080E590E0A0E0B0E08093D4038D
:1039C0009093D503A093D603B093D7038091710051
:1039D0008260809371002CC08FE18093CF0080E5DE
:1039E00090E0A0E0B0E08093A4049093A504A0939D
:1039F000A604B093A7048091720080648093720043
:103A000017C085B5887F846085BD8DE487BD80E55E
:103A100090E0A0E0B0E08093AC049093AD04A0935C
:103A2000AE04B093AF0480916E00826080936E000C
:103A3000CF910895FC0144815581608171818EE5AB
:103A400094E00C94D616009769F0FC0101900020D8
:103A5000E9F73197AF01481B590BBC018EE594E0A3
:103A60000C94D61680E090E008953F924F925F92BA
:103A70006F927F928F929F92AF92BF92CF92DF927E
:103A8000EF92FF920F931F93CF93DF93EC014901C5
:103A90005801C884D9846C157D050CF095C08A85C1
:103AA0009B85481759070CF08FC09B01200F311FD1
:103AB000C216D3061CF4C61AD70A01C068019A01BF
:103AC0002E0D3F1D821793071CF47C01E41AF50AA2
:103AD0008A010E0D1F1D015011099B012C0D3D1D6A
:103AE00021503109CE010E94D00F8B8D882331F0F7
:103AF00080912804909129040E94FA0ECE010E9420
:103B0000AA0ECE010E94B50E8501095F1F4F17FF57
:103B100002C0095F1F4F93E0159507959A95E1F74D
:103B2000612C712CA12CB12C312CAE14BF049CF54E
:103B3000412C512C4C145D0444F5C2018770992727
:103B4000892B11F0330C0DC0F20157FC379683E03E
:103B5000F595E7958A95E1F7E60DF71DE80DF91D56
:103B6000349037FE06C060E0CE010E94CC0E61E0CA
:103B700005C06FEFCE010E94CC0E6FEFCE010E9408
:103B8000CC0E8FEF481A580AD5CF8FEFA81AB80A73
:103B9000600E711ECACFCE010E94C10E8B8D88238C
:103BA00099F0DF91CF911F910F91FF90EF90DF90EF
:103BB000CF90BF90AF909F908F907F906F905F90CD
:103BC0004F903F900C94F90EDF91CF911F910F9180
:103BD000FF90EF90DF90CF90BF90AF909F908F902D
:103BE0007F906F905F904F903F900895CF92DF92BB
:103BF000EF92FF920F931F93CF93DF93EC012196E7
:103C0000FC011491112309F437C0FE0164918EE583
:103C100094E00E94240F6E01F2E0CF0ED11CFE0151
:103C20003196C4910C2F0078CF777601DC2FD150DC
:103C300050F0F70164918EE594E00E94FD0EFFEFD5
:103C4000EF1AFF0AF4CFC6018C0F911DEC0100237F
:103C500089F07C019FEFE91AF90AFE01649170E096
:103C60006F3F710511F464EF71E080E090E00E9415
:103C70001A0EE7011150C6CFDF91CF911F910F911E
:103C8000FF90EF90DF90CF900895CF93DF930E9445
:103C9000231DEC018FEB92E00E94231D8C0F9D1FD2
:103CA000DF91CF910895FC018091D003811103C071
:103CB0008FEF9FEF08959FB7F89482E08093E9001B
:103CC0002091F20030E01216130614F421E030E0E7
:103CD0002115310559F0289A84E68093CF0380910D
:103CE000F10080838091F200882319F09FBFC90101
:103CF00008958BE68093E800F9CF2FB7F89483E01E
:103D00008093E9009091E800892F807295FF04C0AC
:103D10009091F20080E4891B2FBF08958091930455
:103D200081110DC082E080938F0484E08093900421
:103D3000109292041092910481E0809393048FE892
:103D400094E00895CF93DF93CDB7DEB7E2970FB637
:103D5000F894DEBF0FBECDBF789484B5826084BD79
:103D600084B5816084BD85B5826085BD85B581607F
:103D700085BD80916E00816080936E0010928100FD
:103D800080918100826080938100809181008160B8
:103D90008093810080918000816080938000809179
:103DA0009100826080939100809191008160809366
:103DB0009100809190008160809390008091C1007B
:103DC00084608093C1008091C10082608093C100B3
:103DD0008091C10081608093C1008091C3008160A7
:103DE0008093C3008091C00082608093C000809166
:103DF000C20081608093C20080917A0084608093C9
:103E00007A0080917A00826080937A0080917A00B3
:103E1000816080937A0080917A00806880937A0034
:103E20001092D0031092A1031092A0038091D700AA
:103E300081608093D70080EA8093D80089B5806143
:103E400089BD89B5826089BD09B400FEFDCF61E0FE
:103E500070E080E090E00E941A0E8091D8008F7C84
:103E600080618093D8008091E000807F8093E000A3
:103E70008091E1008E7E8093E1008DE08093E200EE
:103E8000559A209A5D982898EEEFFFE785919491D6
:103E90008B3F9C4D19F481E080939F038FEF9FEF40
:103EA0009093E5038093E4031092800410927F04C2
:103EB000109281041092820461E080917B040E9440
:103EC000DE0D61E080917A040E94DE0D20917A047B
:103ED000022E000C330BF901E95CF14FE491F0E0A4
:103EE000EE0FFF1FE75DF14F859194919093880449
:103EF0008093870440917B04042E000C550BFA013B
:103F0000E95CF14F8491E82FF0E0EE0FFF1FE75DD1
:103F1000F14F8591949190938A0480938904F901DB
:103F2000E65FF14FE491E0938D04FA01E65FF14F13
:103F3000E491E0938E0480917904882309F43AC0D7
:103F40001FB7F8948091B803811127C0E8E4FEE020
:103F50008491EBE1FEE09491E82FF0E0EE0FFF1F7B
:103F6000E955F84FA591B491EC91E92321F461E072
:103F700081E10E94AE0D61E081E10E94DE0D8CB511
:103F800080618CBD8CB580648CBD61E08FE00E9447
:103F9000DE0D61E080E10E94DE0D8091B8038F5F4D
:103FA0008093B8031FBF80E58093280481E080934D
:103FB000290449C061E080917E040E94DE0D61E029
:103FC00080917D040E94DE0D60E080917E040E945D
:103FD000AE0D60E080917D040E94AE0D20917E04C4
:103FE000022E000C330BF901E95CF14FE491F0E093
:103FF000EE0FFF1FE75DF14F85919491909386043A
:104000008093850440917D04042E000C550BFA0129
:10401000E95CF14F8491E82FF0E0EE0FFF1FE75DC0
:10402000F14F859194919093840480938304F901D6
:10403000E65FF14FE491E0938C04FA01E65FF14F03
:10404000E491E0938B048EE594E00E94B50E80919C
:104050007C048F3F21F161E00E94DE0D61E08091E0
:104060007C040E94AE0D64EF71E080E090E00E945D
:104070001A0E60E080917C040E94AE0D64EF71E046
:1040800080E090E00E941A0E61E080917C040E9422
:10409000AE0D64EF71E080E090E00E941A0E8DEEAC
:1040A00097E00E94F61D80E890E090936904809369
:1040B0006804909367048093660480EE97E00E9402
:1040C000F61D82E080937F0483E08093800485EB7B
:1040D00097E00E94F61D11E01093780460E08EE5F1
:1040E00094E00E945B0F60E070E08EE594E00E9437
:1040F000E20764EB72E0CE0101960E94CB181092A9
:104100006B0410926A0410926D0410926C04109269
:1041100071041092700410926F0410926E04109348
:104120007204CE0101960E941A1D8FEB92E00E944C
:10413000231DCE0101960E94AC1861E08CE00E9424
:10414000DE0D0E94E71B60E085E00E94DE0D61E06D
:1041500085E00E94AE0D60E086E00E94DE0D61E029
:1041600086E00E94AE0D60E087E00E94DE0D61E017
:1041700087E00E94AE0D84E690E09093590480930E
:10418000580486E090E090935B0480935A048EE597
:1041900094E090935D0480935C0488E298E09093AF
:1041A0005304809352041E0133E1230E311C80918D
:1041B0000C0190910D018636910509F451C288F4E5
:1041C0008436910519F18536910511F00C94552B23
:1041D0001EA61DA6412C512CE12CF12C00E010E074
:1041E000E7C08836910509F48FC308F401C3893606
:1041F000910511F00C94552B99249394CC24CA94D6
:10420000DC2C95E6A92EB12C0C944D2B0E94791133
:1042100062EC72E0C1010E94CB1881E080937204CD
:10422000109271041092700410926F0410926E0438
:10423000009168041091690417FF02C00F5F1F4FBF
:10424000159507950C501109E0906604F0906704ED
:10425000B101CE0101960E94B118CE0101960E94D3
:104260007F11A701481B590BCA0157FD019695956F
:10427000879590936B0480936A0410936D04009368
:104280006C04CE0101960E94AC18C1010E941A1D57
:1042900060ED72E0C1010E949518009168041091D0
:1042A000690417FF02C00F5F1F4F15950795045053
:1042B0001109E0906604F0906704B101CE01019607
:1042C0000E94B118CE0101960E947F11D701A81B50
:1042D000B90BCD01B7FD01969595879590936B0429
:1042E00080936A0410936D0400936C04CE010196D0
:1042F0000E94AC18C1010E941A1D0E9403160E9460
:10430000540E6093C6037093C7038093C8039093C1
:10431000C9030091C2031091C3032091C4033091DB
:10432000C5032B013C01401A510A620A730A45EC8D
:10433000441649E054066104710480F06093C2039E
:104340007093C3038093C4039093C5030E947911B3
:1043500085E690E090930D0180930C01C1010E94CD
:10436000AC180C94552B0E94540E6093C6037093A6
:10437000C7038093C8039093C9038090C2039090B1
:10438000C303A090C403B090C5039B01AC012819DE
:1043900039094A095B0949015A013CE48316910431
:1043A000A104B10470F443E0E416F10409F443C13C
:1043B00080910C0190910D0185369105A1F20C942C
:1043C000552B6093C2037093C3038093C4039093EF
:1043D000C5030E940316E114F10439F58091B4037A
:1043E000882351F00F5F1F4F0E9479110330110590
:1043F00089F400E010E00EC08091B203882351F0F0
:10440000015011090E9479110F3F4FEF140711F469
:1044100002E010E08091B303882339F083E090E05C
:104420009EA78DA7EE24E394F12C69ED72E0C10103
:104430000E94CB180130110531F00230110531F026
:104440006EED72E005C06DEE72E002C069EF72E0E1
:10445000C1010E94951880916604909167043C0107
:1044600097FF03C0AFEF6A1A7A0A759467946816CB
:1044700079060CF089C020916804309169042930D4
:1044800031050CF481C0A301485F5F4F8417950785
:1044900034F46C01C618D708D8AACFA604C048E0E7
:1044A00050E058AB4FA7203131052CF4C9010897D3
:1044B0009AAB89AB04C0A8E0B0E0BAABA9AB19A62F
:1044C00058E0852E912CA12CB12C28ED3CE03CA786
:1044D0002BA7C12CD12C2FA538A9C216D3060CF0BE
:1044E00047C0C60187709927892B21F0B9A5BB0F5A
:1044F000B9A70EC0F601D7FC379643E0F595E795CE
:104500004A95E1F7EA0DFB1DE85EF24F249129A7D9
:1045100039A537FF19C0ABA5BCA5EC91E150E3303C
:1045200040F4F0E0EE0FFF1FEF5DFE4F2081318180
:1045300002C020E030E0A401B601660D771D8EE5D3
:1045400094E00E9438110AC06FEF8EE594E00E945B
:10455000CC0E6FEF8EE594E00E94CC0EBFEFCB1A2D
:10456000DB0AEBA5FCA5E80DF91DFCA7EBA7B3CF73
:104570003FEFA31AB30A4FEF841A940AC9A8DAA826
:10458000AC14BD0409F0A1CF81E08093720431E046
:10459000E316F10459F44FEF5FEF50936F0440932B
:1045A0006E04109271041092700408C0109271048D
:1045B0001092700410926F0410926E04C090660402
:1045C000D0906704B101CE0101960E94B118CE01CE
:1045D00001960E947F11D601A81BB90BCD01B7FD32
:1045E00001969595879590936B0480936A04E0E219
:1045F000F0E0F0936D04E0936C04CE0101960E940C
:10460000AC18C1010E941A1D0E94A511E114F10409
:1046100071F06DA47EA46414750430F42FEFE21AD7
:10462000F20A412C512C03C03FEF431A530AC10137
:104630000E94AC18B8CE0115110519F487E690E078
:1046400005C00130110539F486E690E090930D0124
:1046500080930C01ADCEE12CF12C02E010E0A8CE4D
:1046600000E010E099249394F8E0EF2EF12CA5E6F9
:10467000CA2ED12CB0E2AB2EB12C80910C019091BE
:104680000D018636910511F00C94552B0E94540EA5
:104690006093C6037093C7038093C8039093C903C4
:1046A0004090C2035090C3036090C4037090C50350
:1046B0009B01AC01241935094609570929013A0122
:1046C0003CE44316510461047104B8F26093C203E0
:1046D0007093C3038093C4039093C5030E94031691
:1046E0008091B403811108C08091B303811104C08B
:1046F0008091B203882311F00F5F1F4F90927204D4
:10470000109271041092700410926F0410926E0453
:104710006091660470916704072E000C880B990B5A
:104720000E947F2C20E030E040E452E40E94D32D30
:1047300020E030E040E05FE30E94DE2C0E94402E4B
:1047400070936B0460936A0410926D0410926C0471
:104750000230110524F487E093E00E94231D10929B
:104760006B0410926A04F0926D04E0926C040115DF
:10477000110549F480E193E00E94451E8CE193E02D
:104780000E94451E7ACF0130110569F50E9479110A
:1047900082E493E00E94451E609166047091670474
:1047A000072E000C880B990B0E947F2C20E030E034
:1047B00040E752E40E94D32D20E030E040E05FE388
:1047C0000E94DE2C0E94402E70936B0460936A045A
:1047D000B0926D04A0926C040E94791183E693E07C
:1047E0000E94231D4ACFD0920D01C0920C0145CFEB
:1047F00099249394CC24CA94DC2C78E6A72EB12C6F
:1048000080910C0190910D018736910509F04DC7FB
:104810000E94791100916804109169042091660446
:1048200030916704E12CF12C40E050E060E070E052
:104830008EE594E00E941E1090927204D0926F0454
:10484000C0926E04109271041092700480916804FA
:104850009091690497FD0196959587958C01035079
:1048600011096091660470916704072E000C880B93
:10487000990B0E947F2C20E030E048E252E40E9435
:10488000D32D20E030E040E05FE30E94DE2C0E9468
:10489000402E70936B0460936A0410936D04009330
:1048A0006C048EE693E00E94231D0E94540E6093D8
:1048B000C6037093C7038093C8039093C903009104
:1048C000C2031091C3032091C4033091C5032B018F
:1048D0003C01401A510A620A730A4BEC441648E044
:1048E00054066104710408F48BCF6093C203709383
:1048F000C3038093C4039093C503B0920D01A092AB
:104900000C010E9479117CCF1092AD031092AC0380
:1049100083E090E090930B0180930A0181E090E0A6
:10492000909309018093080110924A0410924B045D
:1049300010924C0410924D0480E090E0A0E8B1E4A5
:1049400080934E0490934F04A0935004B09351046D
:104950001092A4031092A5031092A6031092A7032D
:104960001092A8031092A9031092AA031092AB030D
:1049700010923204109233041092340410923504D1
:1049800010923604109237041092380410923904B1
:1049900010922A0410922B0410922C0410922D04D1
:1049A00010922E0410922F041092300410923104B1
:1049B0008FEF9FEF9093C1038093C0031092A303E6
:1049C00080910C0190910D018836910509F06DC61A
:1049D0000E94540E6093C6037093C7038093C8036C
:1049E0009093C9030091C2031091C3032091C403A3
:1049F0003091C5032B013C01401A510A620A730A27
:104A0000930182010C34110521053105C8F2609330
:104A1000C2037093C3038093C4039093C5030E94A1
:104A200003160091B7031091B503002369F080913C
:104A3000B603882349F0112339F055E6652E712C11
:104A400070920D0160920C01B090B30360914A0422
:104A500070914B0480914C0490914D040E94402E23
:104A60007093B1036093B00360914E0470914F0452
:104A700080915004909151040E94402E7093AF0396
:104A80006093AE038091AC039091AD03039709F45A
:104A9000A7C31092A8031092A9031092AA03109220
:104AA000AB03002351F0111129C0CC24C394D12CA5
:104AB000D0920901C092080109C01123F9F0EE2437
:104AC000EA94FE2CF0920901E0920801609108013D
:104AD00070910901072E000C880B990B0E947F2C06
:104AE00020E030E040E450E40E94DE2C6093A80314
:104AF0007093A9038093AA039093AB036091A803DA
:104B00007091A9038091AA039091AB0320E030E05B
:104B1000A9010E94F113C090A803D090A903E090CE
:104B2000AA03F090AB03A701960160914204709133
:104B3000430480914404909145040E94D42D6093D5
:104B400042047093430480934404909345048091FD
:104B5000C0039091C1038F3F2FEF920709F055C01A
:104B600040904A0450904B0460904C0470904D0467
:104B7000609166047091670477FF02C06F5F7F4F9A
:104B8000759567956A507109072E000C880B990B73
:104B90000E947F2C9B01AC01C301B2010E94762EC2
:104BA00018162CF41092C1031092C0030EC0A70176
:104BB0009601C301B2010E94D42D60934A04709300
:104BC0004B0480934C0490934D0420E030E0A90105
:104BD00060914A0470914B0480914C0490914D0473
:104BE0000E94782C87FF64C010924A0410924B04F4
:104BF00010924C0410924D041092A8031092A90335
:104C00001092AA031092AB0353C0019709F050C051
:104C100040904A0450904B0460904C0470904D04B6
:104C20000091660410916704B80117FF02C06F5F1E
:104C30007F4F759567956A507109072E000C880B98
:104C4000990B0E947F2C9B01AC01C301B2010E9411
:104C5000782C87FF05C01092C1031092C0030EC0CC
:104C6000A7019601C301B2010E94D42D60934A04AA
:104C700070934B0480934C0490934D04B801110F32
:104C8000880B990B0E947F2C9B01AC0160914A0418
:104C900070914B0480914C0490914D040E94762EAB
:104CA000181634F445E650E050930D0140930C0182
:104CB0008091C0039091C103892B09F0B1C040904D
:104CC0003204509033046090340470903504409264
:104CD0002A0450922B0460922C0470922D0420E040
:104CE00030E0A901C301B2010E94762EE090660473
:104CF000F0906704009158041091590487FD15C085
:104D0000B80183E0660F771F8A95E1F76E197F0976
:104D100080E090E00E947D2C9B01AC01C301B201B8
:104D20000E94782C18160CF0CAC4B80103E0660F74
:104D3000771F0A95E1F76E197F0980E090E00E94E5
:104D40007D2C6B017C019B01AC0160913204709160
:104D5000330480913404909135040E94762E181605
:104D600044F581E090E09093C1038093C003C0922A
:104D70003204D0923304E0923404F092350420914E
:104D8000A8033091A9034091AA035091AB0360910D
:104D90004A0470914B0480914C0490914D040E9400
:104DA000D42D60934A0470934B0480934C049093E9
:104DB0004D0420E030E0A901609132047091330489
:104DC00080913404909135040E94782C87FF28C08C
:104DD000AFEFBFEFB093C103A093C0032091A8032E
:104DE0003091A9034091AA035091AB0360914A040A
:104DF00070914B0480914C0490914D040E94D42DED
:104E000060934A0470934B0480934C0490934D0438
:104E1000109232041092330410923404109235042C
:104E2000F101B0E14B2E11924A94E9F7C12CD12C3B
:104E300010E2E12E11E4F12ECB8EDC8EED8EFE8E93
:104E400020E030E040E851E42F8F38A349A35AA373
:104E500020914A0430914B0440914C0450914D04F0
:104E60006091320470913304809134049091350440
:104E70000E94D42D20E030E040E450E40E94D42D84
:104E80006B8B7C8B8D8B9E8B20914E0430914F04CD
:104E90004091500450915104609136047091370450
:104EA00080913804909139040E94D42D20E030E0A4
:104EB00040E85FE30E94D42D6F8B788F898F9A8FA3
:104EC00000E21DE0F8016591749180E090E00E949D
:104ED0007D2C69837A838B839C83F801329665915C
:104EE000749180E090E00E947D2C6D837E838F839F
:104EF0009887F80134966591749180E090E00E9463
:104F00007D2C69877A878B879C87F8013696659117
:104F1000749180E090E00E947D2C6D877E878F8762
:104F2000988BBE016F5F7F4FC1010E94851388235C
:104F300019F01092BF0322C0085F1F4F3DE00839EF
:104F4000130709F0BFCF2AE939E949E15FE360912E
:104F5000A4037091A5038091A6039091A7030E94DA
:104F6000D42D6093A4037093A5038093A60390931C
:104F7000A70381E08093A3038093BF03C090A403A1
:104F8000D090A503E090A603F090A70320E030E0C6
:104F9000A901C701B6010E94782C882339F0A70126
:104FA000960160E070E0CB010E94F113BB20F9F0A4
:104FB0008091A30381111BC020E030E040E850E461
:104FC0006091A4037091A5038091A6039091A7031B
:104FD0000E94D32D6093A4037093A5038093A6032E
:104FE0009093A70381E08093A3030E94E71B809026
:104FF0004E0490904F04A0905004B0905104C5010D
:10500000B4010E94402E7093BE036093BD03C09014
:10501000A403D090A503E090A603F090A703A701F6
:105020009601C501B4010E94D42D4B015C0160932F
:105030004E0470934F048093500490935104209138
:105040004604309147044091480450914904C701F7
:10505000B6010E94D42D2B013C016093460470934D
:105060004704809348049093490420E030E0A9016C
:10507000C701B6010E94782C81113CC08091BF030A
:10508000811138C080910801909109019093070126
:10509000809306018091320490913304A0913404EE
:1050A000B091350480932A0490932B04A0932C0490
:1050B000B0932D0440922E0450922F04609230043D
:1050C0007092310480914A0490914B04A0914C0459
:1050D000B0914D0480933A0490933B04A0933C0418
:1050E000B0933D0480923E0490923F04A09240040D
:1050F000B092410420913604309137044091380435
:1051000050913904C501B4010E94D42D4B015C01BA
:10511000209156043091570480915A0490915B0479
:10512000289FB001299F700D389F700D112480E0D9
:1051300090E00E947D2C9B01AC01C501B4010E944E
:10514000762E181634F443E050E05093AD034093AC
:10515000AC030091AC031091AD030330110509F4C9
:1051600008C120E030E0A9016091A8037091A90373
:105170008091AA039091AB030E94782C20E030E04C
:10518000A90181110EC0C701B6010E94782C8111BE
:1051900019C0012B09F4EDC01092AD031092AC03BD
:1051A0001BC0C701B6010E94782C81110BC00130D1
:1051B000110509F4DEC081E090E09093AD03809387
:1051C000AC030BC00230110509F4D3C0A2E0B0E07B
:1051D000B093AD03A093AC0381E08093A203C9C058
:1051E0008091B9039091BA03A091BB03B091BC0325
:1051F0000196A11DB11D8E309105A105B1054CF49C
:105200008093B9039093BA03A093BB03B093BC03FC
:10521000B0C01092B9031092BA031092BB0310925F
:10522000BC0380910A0190910B01019790930B01AF
:1052300080930A01181619060CF095C020E030E0A2
:1052400040E05EE360913A0470913B0480913C043D
:1052500090913D040E94DE2C20E030E040E051E4DB
:105260000E94DE2C0E94402E072E000C880B990B0A
:105270000E947F2C6B017C0160934A0470934B0465
:1052800080934C0490934D0420E030E040E05EE3D6
:1052900060913E0470913F048091400490914104DC
:1052A0000E94DE2C20E030E040E051E40E94DE2C41
:1052B0000E94402E072E000C880B990B0E947F2C19
:1052C00060934E0470934F04809350049093510464
:1052D000C0924204D0924304E0924404F092450408
:1052E00020E030E040E05EE360912A0470912B04FE
:1052F00080912C0490912D040E94DE2C20E030E05F
:1053000040E051E40E94DE2C0E94402E072E000C4B
:10531000880B990B0E947F2C6093320470933304A6
:10532000809334049093350410923604109237041D
:1053300010923804109239041092AD031092AC030D
:105340001092A4031092A5031092A6031092A70333
:105350001092A8031092A9031092AA031092AB0313
:105360001092A30306C0E9E6F0E0F0930D01E0938C
:105370000C0160913604709137048091380490914B
:1053800039040E94402E6B017C01609132047091BF
:10539000330480913404909135040E94402E4B01D7
:1053A0005C0100915C0410915D04209154043091E3
:1053B0005504CB01B9010E947B2E6DA77FA7360152
:1053C000E0915604F0915704C601BF010E947B2E64
:1053D0002B01D80118968D919C911997880D991DD4
:1053E000820F931FB9010E947B2E7AA769A7D8016B
:1053F0001A968D919C911B978133910514F080E34F
:1054000090E08C0D9D1DBF010E947B2E7CA76BA799
:10541000919481949108CBA4DCA44C145D040CF00D
:1054200057C0CDA4DFA4E9A5FAA5CE16DF060CF07F
:105430004BC08091580490915904489EF001499EB8
:10544000F00D589EF00D1124EC0DFD1DEE0FFF1F09
:105450008091520490915304E80FF91F8591949123
:10546000009771F1E0905604F09057044E9CA00113
:105470004F9C500D5E9C500D1124460D571D009100
:10548000540410915504C09EB001C19E700DD09E71
:10549000700D1124680D791D0297823A910580F4F0
:1054A000880F991FFC01E55DFE4F20813181211598
:1054B000310531F080915C0490915D040E94351DAE
:1054C000BFEFCB1ADB0AAFCFFFEF4F1A5F0AA3CFB4
:1054D0000E94A51180910A0190910B011CA21BA2B0
:1054E0001EA21DA218A61FA24AE0BE016F5F7F4F39
:1054F0000E94432CBE016F5F7F4FCE0183960E94B6
:10550000951866E773E0CE0101960E94CB188FA133
:1055100098A5EBA0FCA00D811E81E114F10409F413
:10552000E3C00097A9F0080F191FB801CE0101963A
:105530000E943B18882309F4D7C029813A818D81C4
:105540009E81B701820F931F0E949A301E830D83A4
:10555000BE016F5F7F4FC1010E94B118CE0101965D
:105560000E94AC1881E08093720410926F04109234
:105570006E04EE24EA94FE2CF0927104E092700422
:1055800010926B0410926A0410926D0410926C04D5
:10559000C1010E941A1DC1010E94AC18CE01839660
:1055A0000E94AC180DCA0E947911009168041091F4
:1055B00069042091660430916704E12CF12C40E0ED
:1055C00050E060E070E08EE594E00E941E10909242
:1055D0007204D0926F04C0926E0410927104109203
:1055E0007004809168049091690497FD01969595E7
:1055F00087958C01035011096091660470916704CE
:10560000072E000C880B990B0E947F2C20E030E0C5
:1056100048E552E40E94D32D20E030E040E05FE313
:105620000E94DE2C0E94402E70936B0460936A04EB
:1056300010936D0400936C0488E793E00E94231D8F
:105640000E94540E6093C6037093C7038093C803EF
:105650009093C9030091C2031091C3032091C40326
:105660003091C5032B013C01401A510A620A730AAA
:1056700049EB44164BE054066104710470F06093EA
:10568000C2037093C3038093C4039093C503B09285
:105690000D01A0920C010E94791180910C01909152
:1056A0000D018936910509F47ECF80E090E0892BC9
:1056B00011F40C94D7200E9400000C94D720209164
:1056C000A8033091A9034091AA035091AB03C301F1
:1056D000B2010E94D42D60933204709333048093FE
:1056E00034049093350421CBCE0101960E946218B8
:1056F0002FCFCF92DF92EF92FF920F931F93CF9312
:10570000DF931F92CDB7DEB7182F062FE42E862F1A
:10571000880F8E5F99830E94741683E00E9474162E
:10572000F12EC12E9981D92E8C2D8F19801798F4C6
:10573000F601E7FE02C0849101C080810E947416C8
:10574000182F80E00E9474168123FFEFCF1ADF0A22
:105750008111EACF01C081E00F90DF91CF911F91BD
:105760000F91FF90EF90DF90CF900895E8EDF3E078
:105770001382128288EE93E0A0E0B0E084839583E8
:10578000A683B7838AE792E0918380832FEF3FEF70
:1057900035872487E8E2F4E080E580831182EEE536
:1057A000F4E01382128240E850E05583448380EA9B
:1057B00090E0978386835187408793878287158AF5
:1057C000158614861786168681E0848B338B228B90
:1057D000318B208B868B178A118E108E2CE832E04D
:1057E000318320839AE0948F98E0958F99E0968F8B
:1057F000838F8FEF80A3878FE2E5F4E081E090E074
:10580000978386839187808788E090E09383828363
:105810009583848311821082EAE4F4E0108211827D
:105820001282138280E090E0A8E0B3E48483958341
:10583000A683B783E2E4F4E010821182128213821D
:1058400084839583A683B783EAE3F4E01082118210
:105850001282138284839583A683B783E2E3F4E004
:10586000108211821282138214821582168217828C
:10587000EAE2F4E01082118212821382148215820D
:10588000168217820895BB274A3031F4992322F4F7
:10589000BDE2909581959F4F0C944F2CBB27FB0147
:1058A0005527AA27880F991FAA1FA41710F0A41B19
:1058B00083955051B9F7A05DAA3308F0A95DA19373
:1058C000009779F7B111B1931192CB010C94682C28
:1058D000DC01FC01672F71917723E1F7329704C057
:1058E0007C916D9370836291AE17BF07C8F30895E2
:1058F0000E94BA2C08F481E00895E89409C097FB4F
:105900003EF490958095709561957F4F8F4F9F4F96
:105910009923A9F0F92F96E9BB279395F6958795DA
:1059200077956795B795F111F8CFFAF4BB0F11F49D
:1059300060FF1BC06F5F7F4F8F4F9F4F16C0882344
:1059400011F096E911C0772321F09EE8872F762F7A
:1059500005C0662371F096E8862F70E060E02AF0BB
:105960009A95660F771F881FDAF7880F96958795A7
:1059700097F90895990F0008550FAA0BE0E8FEEF7C
:1059800016161706E807F907C0F012161306E40703
:10599000F50798F0621B730B840B950B39F40A26FC
:1059A00061F0232B242B252B21F408950A2609F4DA
:1059B000A140A6958FEF811D811D08950E94F12CB5
:1059C0000C94622D0E94542D38F00E945B2D20F023
:1059D000952311F00C944B2D0C94512D11240C9403
:1059E000962D0E94732D70F3959FC1F3950F50E093
:1059F000551F629FF001729FBB27F00DB11D639F81
:105A0000AA27F00DB11DAA1F649F6627B00DA11D26
:105A1000661F829F2227B00DA11D621F739FB00DCC
:105A2000A11D621F839FA00D611D221F749F33273C
:105A3000A00D611D231F849F600D211D822F762FD5
:105A40006A2F11249F5750409AF0F1F088234AF0B2
:105A5000EE0FFF1FBB1F661F771F881F915050401E
:105A6000A9F79E3F510580F00C944B2D0C94962D78
:105A70005F3FE4F3983ED4F3869577956795B795A5
:105A8000F795E7959F5FC1F7FE2B880F911D9695BF
:105A9000879597F9089597F99F6780E870E060E02F
:105AA00008959FEF80EC089500240A9416161706B7
:105AB00018060906089500240A94121613061406FF
:105AC00005060895092E0394000C11F4882352F062
:105AD000BB0F40F4BF2B11F460FF04C06F5F7F4F1A
